{
  "contractName": "TSPContract",
  "abi": [
    {
      "anonymous": false,
      "inputs": [
        {
          "indexed": false,
          "internalType": "uint256",
          "name": "id",
          "type": "uint256"
        },
        {
          "indexed": false,
          "internalType": "string",
          "name": "nombre",
          "type": "string"
        },
        {
          "indexed": false,
          "internalType": "string",
          "name": "clase",
          "type": "string"
        },
        {
          "indexed": false,
          "internalType": "string",
          "name": "genero",
          "type": "string"
        },
        {
          "indexed": false,
          "internalType": "string",
          "name": "nombreD",
          "type": "string"
        },
        {
          "indexed": false,
          "internalType": "string",
          "name": "walletD",
          "type": "string"
        },
        {
          "indexed": false,
          "internalType": "bool",
          "name": "done",
          "type": "bool"
        },
        {
          "indexed": false,
          "internalType": "uint256",
          "name": "createdAt",
          "type": "uint256"
        }
      ],
      "name": "TSPCreated",
      "type": "event"
    },
    {
      "anonymous": false,
      "inputs": [
        {
          "indexed": false,
          "internalType": "uint256",
          "name": "id",
          "type": "uint256"
        },
        {
          "indexed": false,
          "internalType": "bool",
          "name": "done",
          "type": "bool"
        }
      ],
      "name": "TSPToggleDone",
      "type": "event"
    },
    {
      "inputs": [],
      "name": "tspCounter",
      "outputs": [
        {
          "internalType": "uint256",
          "name": "",
          "type": "uint256"
        }
      ],
      "stateMutability": "view",
      "type": "function",
      "constant": true
    },
    {
      "inputs": [
        {
          "internalType": "uint256",
          "name": "",
          "type": "uint256"
        }
      ],
      "name": "tsps",
      "outputs": [
        {
          "internalType": "uint256",
          "name": "id",
          "type": "uint256"
        },
        {
          "internalType": "string",
          "name": "nombre",
          "type": "string"
        },
        {
          "internalType": "string",
          "name": "clase",
          "type": "string"
        },
        {
          "internalType": "string",
          "name": "genero",
          "type": "string"
        },
        {
          "internalType": "string",
          "name": "nombreD",
          "type": "string"
        },
        {
          "internalType": "string",
          "name": "walletD",
          "type": "string"
        },
        {
          "internalType": "bool",
          "name": "done",
          "type": "bool"
        },
        {
          "internalType": "uint256",
          "name": "createdAt",
          "type": "uint256"
        }
      ],
      "stateMutability": "view",
      "type": "function",
      "constant": true
    },
    {
      "inputs": [
        {
          "internalType": "string",
          "name": "_nombre",
          "type": "string"
        },
        {
          "internalType": "string",
          "name": "_clase",
          "type": "string"
        },
        {
          "internalType": "string",
          "name": "_genero",
          "type": "string"
        },
        {
          "internalType": "string",
          "name": "_nombreD",
          "type": "string"
        },
        {
          "internalType": "string",
          "name": "_walletD",
          "type": "string"
        }
      ],
      "name": "createTSP",
      "outputs": [],
      "stateMutability": "nonpayable",
      "type": "function"
    },
    {
      "inputs": [
        {
          "internalType": "uint256",
          "name": "_id",
          "type": "uint256"
        }
      ],
      "name": "toggleDone",
      "outputs": [],
      "stateMutability": "nonpayable",
      "type": "function"
    }
  ],
  "bytecode": "0x60806040526000805534801561001457600080fd5b50610fcd806100246000396000f3fe608060405234801561001057600080fd5b506004361061004c5760003560e01c80633475c99a146100515780635656826e1461006f57806371aa4966146100a6578063d81ef739146100c2575b600080fd5b6100596100de565b6040516100669190610c73565b60405180910390f35b61008960048036038101906100849190610bef565b6100e4565b60405161009d989796959493929190610cb7565b60405180910390f35b6100c060048036038101906100bb9190610ae8565b6103e1565b005b6100dc60048036038101906100d79190610bef565b610562565b005b60005481565b600160205280600052604060002060009150905080600001549080600101805461010d90610e22565b80601f016020809104026020016040519081016040528092919081815260200182805461013990610e22565b80156101865780601f1061015b57610100808354040283529160200191610186565b820191906000526020600020905b81548152906001019060200180831161016957829003601f168201915b50505050509080600201805461019b90610e22565b80601f01602080910402602001604051908101604052809291908181526020018280546101c790610e22565b80156102145780601f106101e957610100808354040283529160200191610214565b820191906000526020600020905b8154815290600101906020018083116101f757829003601f168201915b50505050509080600301805461022990610e22565b80601f016020809104026020016040519081016040528092919081815260200182805461025590610e22565b80156102a25780601f10610277576101008083540402835291602001916102a2565b820191906000526020600020905b81548152906001019060200180831161028557829003601f168201915b5050505050908060040180546102b790610e22565b80601f01602080910402602001604051908101604052809291908181526020018280546102e390610e22565b80156103305780601f1061030557610100808354040283529160200191610330565b820191906000526020600020905b81548152906001019060200180831161031357829003601f168201915b50505050509080600501805461034590610e22565b80601f016020809104026020016040519081016040528092919081815260200182805461037190610e22565b80156103be5780601f10610393576101008083540402835291602001916103be565b820191906000526020600020905b8154815290600101906020018083116103a157829003601f168201915b5050505050908060060160009054906101000a900460ff16908060070154905088565b6000808154809291906103f390610e85565b919050555060405180610100016040528060005481526020018681526020018581526020018481526020018381526020018281526020016000151581526020014281525060016000805481526020019081526020016000206000820151816000015560208201518160010190805190602001906104719291906109c0565b50604082015181600201908051906020019061048e9291906109c0565b5060608201518160030190805190602001906104ab9291906109c0565b5060808201518160040190805190602001906104c89291906109c0565b5060a08201518160050190805190602001906104e59291906109c0565b5060c08201518160060160006101000a81548160ff02191690831515021790555060e082015181600701559050507ff06d1422cc843e9b420134fede99462a1f8e30ac91f1caa6a1befa11724135856000548686868686600042604051610553989796959493929190610cb7565b60405180910390a15050505050565b600060016000838152602001908152602001600020604051806101000160405290816000820154815260200160018201805461059d90610e22565b80601f01602080910402602001604051908101604052809291908181526020018280546105c990610e22565b80156106165780601f106105eb57610100808354040283529160200191610616565b820191906000526020600020905b8154815290600101906020018083116105f957829003601f168201915b5050505050815260200160028201805461062f90610e22565b80601f016020809104026020016040519081016040528092919081815260200182805461065b90610e22565b80156106a85780601f1061067d576101008083540402835291602001916106a8565b820191906000526020600020905b81548152906001019060200180831161068b57829003601f168201915b505050505081526020016003820180546106c190610e22565b80601f01602080910402602001604051908101604052809291908181526020018280546106ed90610e22565b801561073a5780601f1061070f5761010080835404028352916020019161073a565b820191906000526020600020905b81548152906001019060200180831161071d57829003601f168201915b5050505050815260200160048201805461075390610e22565b80601f016020809104026020016040519081016040528092919081815260200182805461077f90610e22565b80156107cc5780601f106107a1576101008083540402835291602001916107cc565b820191906000526020600020905b8154815290600101906020018083116107af57829003601f168201915b505050505081526020016005820180546107e590610e22565b80601f016020809104026020016040519081016040528092919081815260200182805461081190610e22565b801561085e5780601f106108335761010080835404028352916020019161085e565b820191906000526020600020905b81548152906001019060200180831161084157829003601f168201915b505050505081526020016006820160009054906101000a900460ff1615151515815260200160078201548152505090508060c00151158160c001901515908115158152505080600160008481526020019081526020016000206000820151816000015560208201518160010190805190602001906108dd9291906109c0565b5060408201518160020190805190602001906108fa9291906109c0565b5060608201518160030190805190602001906109179291906109c0565b5060808201518160040190805190602001906109349291906109c0565b5060a08201518160050190805190602001906109519291906109c0565b5060c08201518160060160006101000a81548160ff02191690831515021790555060e082015181600701559050507f6322d9fb81d52fb7213069e45c436884d13178a5129ce2b7b5b7b13e4eb3e01a828260c001516040516109b4929190610c8e565b60405180910390a15050565b8280546109cc90610e22565b90600052602060002090601f0160209004810192826109ee5760008555610a35565b82601f10610a0757805160ff1916838001178555610a35565b82800160010185558215610a35579182015b82811115610a34578251825591602001919060010190610a19565b5b509050610a429190610a46565b5090565b5b80821115610a5f576000816000905550600101610a47565b5090565b6000610a76610a7184610d7d565b610d58565b905082815260208101848484011115610a9257610a91610f60565b5b610a9d848285610de0565b509392505050565b600082601f830112610aba57610ab9610f5b565b5b8135610aca848260208601610a63565b91505092915050565b600081359050610ae281610f80565b92915050565b600080600080600060a08688031215610b0457610b03610f6a565b5b600086013567ffffffffffffffff811115610b2257610b21610f65565b5b610b2e88828901610aa5565b955050602086013567ffffffffffffffff811115610b4f57610b4e610f65565b5b610b5b88828901610aa5565b945050604086013567ffffffffffffffff811115610b7c57610b7b610f65565b5b610b8888828901610aa5565b935050606086013567ffffffffffffffff811115610ba957610ba8610f65565b5b610bb588828901610aa5565b925050608086013567ffffffffffffffff811115610bd657610bd5610f65565b5b610be288828901610aa5565b9150509295509295909350565b600060208284031215610c0557610c04610f6a565b5b6000610c1384828501610ad3565b91505092915050565b610c2581610dca565b82525050565b6000610c3682610dae565b610c408185610db9565b9350610c50818560208601610def565b610c5981610f6f565b840191505092915050565b610c6d81610dd6565b82525050565b6000602082019050610c886000830184610c64565b92915050565b6000604082019050610ca36000830185610c64565b610cb06020830184610c1c565b9392505050565b600061010082019050610ccd600083018b610c64565b8181036020830152610cdf818a610c2b565b90508181036040830152610cf38189610c2b565b90508181036060830152610d078188610c2b565b90508181036080830152610d1b8187610c2b565b905081810360a0830152610d2f8186610c2b565b9050610d3e60c0830185610c1c565b610d4b60e0830184610c64565b9998505050505050505050565b6000610d62610d73565b9050610d6e8282610e54565b919050565b6000604051905090565b600067ffffffffffffffff821115610d9857610d97610f2c565b5b610da182610f6f565b9050602081019050919050565b600081519050919050565b600082825260208201905092915050565b60008115159050919050565b6000819050919050565b82818337600083830152505050565b60005b83811015610e0d578082015181840152602081019050610df2565b83811115610e1c576000848401525b50505050565b60006002820490506001821680610e3a57607f821691505b60208210811415610e4e57610e4d610efd565b5b50919050565b610e5d82610f6f565b810181811067ffffffffffffffff82111715610e7c57610e7b610f2c565b5b80604052505050565b6000610e9082610dd6565b91507fffffffffffffffffffffffffffffffffffffffffffffffffffffffffffffffff821415610ec357610ec2610ece565b5b600182019050919050565b7f4e487b7100000000000000000000000000000000000000000000000000000000600052601160045260246000fd5b7f4e487b7100000000000000000000000000000000000000000000000000000000600052602260045260246000fd5b7f4e487b7100000000000000000000000000000000000000000000000000000000600052604160045260246000fd5b600080fd5b600080fd5b600080fd5b600080fd5b6000601f19601f8301169050919050565b610f8981610dd6565b8114610f9457600080fd5b5056fea264697066735822122026458b89ec8d2d9680ab6166ce3bfeb090cd4120381c2da318b20c0287035c2164736f6c63430008060033",
  "immutableReferences": {},
  "source": "// SPDX-License-Identifier: MIT\npragma solidity ^0.8.6;\n\ncontract TSPContract {\n\t\n    uint public tspCounter = 0;\n\n    event TSPCreated (\n        uint id,\n        string nombre,\n        string clase,\n        string genero,\n        string nombreD,\n        string walletD,\n        bool done,\n        uint createdAt\n    );\n\n    event TSPToggleDone(\n        uint id,\n        bool done\n    );\n\n    struct TSP {\n        uint256 id;\n        string nombre;\n        string clase;\n        string genero;\n        string nombreD;\n        string walletD;\n        bool done;\n        uint256 createdAt;\n    }\n    \n    mapping (uint256 => TSP) public tsps;\n\n\tfunction createTSP(string memory _nombre, string memory _clase, string memory _genero, string memory _nombreD, string memory _walletD) public {\n\t\ttspCounter++;\n        tsps[tspCounter] = TSP(tspCounter, _nombre, _clase, _genero, _nombreD, _walletD, false, block.timestamp);\n        emit TSPCreated(tspCounter, _nombre, _clase, _genero, _nombreD, _walletD, false, block.timestamp);  \n\t}\n\n    function toggleDone(uint _id) public {\n        TSP memory tsp = tsps[_id];\n        tsp.done = !tsp.done;\n        tsps[_id] = tsp;\n        emit TSPToggleDone(_id, tsp.done);\n    }\n}",
  "sourcePath": "/Users/macielfernandez/Desktop/Proyectos/myfirstcontract/contracts/TSPContract.sol",
  "compiler": {
    "name": "solc",
    "version": "0.8.6+commit.11564f7e.Emscripten.clang"
  },
  "schemaVersion": "3.4.16",
  "updatedAt": "2024-05-17T12:50:26.870Z",
  "networkType": "ethereum",
  "devdoc": {
    "kind": "dev",
    "methods": {},
    "version": 1
  },
  "userdoc": {
    "kind": "user",
    "methods": {},
    "version": 1
  }
}